:020000040800F2
:1000000000000220F51500083D1600083D16000806
:100010003D1600083D1600083D16000800000000CF
:100020000000000000000000000000003D16000875
:100030003D160008000000003D1600083D160008AF
:100040003D1600083D1600083D1600083D16000844
:100050003D1600083D1600083D1600083D16000834
:100060003D1600083D1600083D1600083D16000824
:100070003D1600083D1600083D1600083D16000814
:100080003D1600083D1600083D1600083D16000804
:100090003D1600083D1600083D1600083D160008F4
:1000A0003D1600083D1600083D1600083D160008E4
:1000B0003D1600083D1600083D1600083D160008D4
:1000C0003D1600083D1600083D1600083D160008C4
:1000D0003D1600083D1600083D1600083D160008B4
:1000E0003D1600083D1600083D1600083D160008A4
:1000F0003D1600083D1600083D1600083D16000894
:100100003D1600083D1600083D1600083D16000883
:100110003D1600083D1600083D1600083D16000873
:100120003D1600083D1600083D1600083D16000863
:100130003D1600083D1600083D1600083D16000853
:100140003D1600083D1600083D1600083D16000843
:100150003D1600083D1600083D1600083D16000833
:100160003D1600083D1600083D1600083D16000823
:100170003D1600083D1600083D1600083D16000813
:080180003D1600083D160008C1
:1001880010B5054C237833B9044B13B10448AFF3C9
:1001980000800123237010BD5804002000000000D7
:1001A80018190008084B10B51BB108480849AFF3E7
:1001B80000800848036803B910BD074B002BFBD02B
:1001C800BDE81040184700BF0000000018190008DB
:1001D8005C0400205404002000000000154B002B94
:1001E80008BF134B9D46A3F5803A00218B460F4666
:1001F8001348144A121A01F057FA0F4B002B00D07B
:1002080098470E4B002B00D098470020002104008F
:100218000D000D48002802D00C4801F007FB01F042
:100228001BFA2000290001F0A9F901F005FA00BF26
:1002380000000800000000000000000000000000AE
:10024800580400207C0400203518000841180008D4
:10025800002882B041F253710ADD019100E000BF2D
:10026800019B5A1E002B0192F9DC01380028F4DCAE
:1002780002B07047B5EEC00AF7EE006AF1EE10FA68
:1002880070EE667A02DC09E0F0EE477A00BFF5EE20
:10029800C07AF1EE10FA37EEE67AF5DC704700BF67
:1002A80008B52DED028B08EE900A0221384800F0BF
:1002B80091FCF8EEE88AF7EE006AF5EEC08AF1EEF6
:1002C80010FA38EEE68A47DDF0EE487A01E0F0EE03
:1002D800477A00BFF5EEC07AF1EE10FA37EEE67A0B
:1002E800F5DC2B48082100F075FCF0EE487AF7EEB3
:1002F800006A01E0F0EE477A00BFF5EEC07AF1EE51
:1003080010FA37EEE67AF5DC2148202100F062FC8D
:10031800F0EE487AF7EE006A01E0F0EE477A00BFA7
:10032800F5EEC07AF1EE10FA37EEE67AF5DC184809
:10033800802100F04FFCB7EE007A01E0B0EE678A4A
:1003480000BFB5EEC08AF1EE10FA78EE477AF5DC18
:10035800BDEC028B002008BD0D48082100F03AFCD6
:10036800F5EEC08AF1EE10FABFDC0948202100F052
:1003780031FCF5EEC08AF1EE10FAC9DC04488021A0
:1003880000F028FCF5EEC08AF1EE10FAE0DDD2E7C5
:10039800000C024008B52DED028B08EE900A802172
:1003A800384800F017FCF8EEE88AF7EE006AF5EE38
:1003B800C08AF1EE10FA38EEE68A47DDF0EE487AA8
:1003C80001E0F0EE477A00BFF5EEC07AF1EE10FAE0
:1003D80037EEE67AF5DC2B48202100F0FBFBF0EE47
:1003E800487AF7EE006A01E0F0EE477A00BFF5EED2
:1003F800C07AF1EE10FA37EEE67AF5DC21480821EA
:1004080000F0E8FBF0EE487AF7EE006A01E0F0EE63
:10041800477A00BFF5EEC07AF1EE10FA37EEE67AC9
:10042800F5DC1848022100F0D5FBB7EE007A01E0B0
:10043800B0EE678A00BFB5EEC08AF1EE10FA78EE2A
:10044800477AF5DCBDEC028B002008BD0D48202161
:1004580000F0C0FBF5EEC08AF1EE10FABFDC0948E7
:10046800082100F0B7FBF5EEC08AF1EE10FAC9DCFE
:100478000448022100F0AEFBF5EEC08AF1EE10FA56
:10048800E0DDD2E7000C024030B54FF4805104465D
:1004980085B0344800F094FB21460029254641F2F6
:1004A80053700ADD009000E000BF009B5A1E002B2D
:1004B8000092F9DC01390029F4DC2A484FF4405154
:1004C80000F080FB27484FF4005100F079FB2146EB
:1004D800002941F253700ADD019000E000BF019B42
:1004E8005A1E002B0192F9DC01390029F4DC1D4861
:1004F8004FF4005100F066FB1A484FF4804100F0B9
:100508005FFB2046002841F253710ADD029100E0AA
:1005180000BF029B5A1E002B0292F9DC013800280A
:10052800F4DC10484FF4804100F04CFB4FF40041DC
:100538000C4800F045FB002D41F253710ADD039190
:1005480000E000BF039B5A1E002B0392F9DC013D1B
:10055800002DF4DC03484FF4004100F033FB002089
:1005680005B030BD000C024030B54FF4805105464F
:1005780089B0544800F02EFB294600292C4641F248
:1005880053700ADD009000E000BF009B5A1E002B4C
:100598000092F9DC01390029F4DC4A484FF4405153
:1005A80000F018FB2946002941F253700ADD01903A
:1005B80000E000BF019B5A1E002B0192F9DC0139B3
:1005C8000029F4DC3F484FF4005100F003FB2946B2
:1005D800002941F253700ADD029000E000BF029B3F
:1005E8005A1E002B0292F9DC01390029F4DC354847
:1005F8004FF4C04100F0EEFA2946002941F2537049
:100608000ADD039000E000BF039B5A1E002B0392F3
:10061800F9DC01390029F4DC2A484FF4804100F064
:10062800D9FA2946002941F253700ADD049000E006
:1006380000BF049B5A1E002B0492F9DC01390029E3
:10064800F4DC20484FF4404100F0C4FA2946002960
:1006580041F253700ADD059000E000BF059B5A1E69
:10066800002B0592F9DC01390029F4DC4FF4004134
:10067800144800F0AFFA002D41F253710ADD0691DB
:1006880000E000BF069B5A1E002B0692F9DC013DD4
:10069800002DF4DC4FF410410A4800F09BFA002CBE
:1006A80041F253710ADD079100E000BF079B5A1E13
:1006B800002B0792F9DC013C002CF4DC002009B087
:1006C80030BD00BF000C024070B506460D46A2249E
:1006D80003E0FFF75FFE013C06D0012E2846F8D163
:1006E800FFF7DEFD013CF8D170BD00BF002870B5F2
:1006F8000E46154600F1FF3406DD013C304629461A
:10070800FFF7E2FF631CF8D170BD00BF39493A4BCF
:10071800D1F88820394842F47002C1F888201A6854
:10072800002142F001021A6099601A6822F084726E
:1007380022F480321A6058601A6882B022F480224B
:100748001A60D960009101911A6842F480321A60E7
:100758001A4603E0009BB3F5A06F09D0136803F4B1
:1007680000330193009B01330093019B002BF1D0D0
:10077800214B1B6813F4003318BF01230193019B1D
:10078800012B05D01B4B4FF000629A6002B07047F6
:10079800194B1B491A6C1B4842F080521A640A68AC
:1007A80042F480420A609A689A609A6842F4004269
:1007B8009A609A6842F4A0529A6058601A6842F0A7
:1007C80080721A601A4611680B4B8901FBD50E4AD4
:1007D80040F2056111609A6822F003029A609A68F3
:1007E80042F002029A601A46936803F00C03082B41
:1007F800FAD1C7E700ED00E00038024010300024CD
:100808000070004019544007003C024018488368B3
:1008180003F00C03042B28D0082B09D0154B144ADD
:1008280015499268C2F303128A5CD3400B61704782
:100838004368416813F4800F436818BF0F4801F0FC
:100848003F020CBF0B49B0FBF2F1C3F3881308BF9A
:10085800B1FBF2F101FB03F2054B5B68C3F3014303
:1008680001335B00B2FBF3F3D9E7044BD7E700BFD2
:10087800003802400024F4000400002000127A002E
:1008880048190008000000205404002058040020E3
:100898007C040020044B054900221A605A609A60C3
:1008A800DA605961704700BF003C0140FFFF7F00DC
:1008B800837933B31C4B02794179F0B404681E681C
:1008C800E7433E401E605D6802F1804202F59E32B9
:1008D8003D405D6015682C43146002689C68D543F0
:1008E8002C409C60D868102900EA0500D86013D015
:1008F80001F1804303F59E33F0BC19680A431A607E
:1009080070470379016803F1804303F59E331A6841
:1009180022EA01021A607047996811439960D96800
:100928000A43DA60F0BC7047003C014000230C2207
:100938004271036003718371704700BF024A1369F3
:1009480018431061704700BF003C0140034B5B69CE
:10095800184214BF01200020704700BF003C01402E
:10096800014B5861704700BF003C0140054B1A68B5
:100978005B69034004D0104214BF01200020704777
:1009880018467047003C0140014B5861704700BF52
:10099800003C014008B53C4B984224D03B4B984260
:1009A8002BD03B4B984232D03A4B984239D03A4BF5
:1009B800984240D0394B984247D0394B98424ED054
:1009C800384B984255D0384B984200D008BD4FF468
:1009D8008070012100F09EFA4FF480700021BDE87C
:1009E800084000F097BA0120014600F093FA012070
:1009F8000021BDE8084000F08DBA0220012100F076
:100A080089FA02200021BDE8084000F083BA0420DA
:100A1800012100F07FFA04200021BDE8084000F021
:100A280079BA0820012100F075FA08200021BDE8F4
:100A3800084000F06FBA1020012100F06BFA102076
:100A48000021BDE8084000F065BA2020012100F02F
:100A580061FA20200021BDE8084000F05BBA402080
:100A6800012100F057FA40200021BDE8084000F0BD
:100A780051BA8020012100F04DFA80200021BDE804
:100A8800084000F047BA00BF0000024000040240DE
:100A980000080240000C024000100240001402400E
:100AA80000180240001C02400020024000222DE9EC
:100AB800F0431346D1F800E001274FF0030C04E09F
:100AC8000133102B02F1020228D007FA03F404EADA
:100AD8000E05A542F4D1D0F800800E790CFA02F484
:100AE800E44304EA0808C0F80080D0F8008006FA59
:100AF80002F9013E49EA0808012EC0F800800FD922
:100B0800C568CE792C40C460C56806FA02F4013382
:100B18002C43102BC46002F10202D6D1BDE8F08349
:100B2800D0F8089091F805808E7904EA0909C0F890
:100B38000890D0F8089008FA02F848EA0908C0F8BE
:100B48000880D0F8048028EA05054560D0F80480BC
:100B580006FA03F5ADB245EA08054560D0E700BFDF
:100B680000234FF6FF720260037143718371C371F2
:100B7800704700BF82B04FF480330193019B0B4351
:100B88000193019BC361C161019BC361C369019367
:100B9800C369019302B070470369194214BF012069
:100BA80000207047006980B2704700BF436919424E
:100BB80014BF012000207047406980B2704700BF11
:100BC80001837047418370470AB9418370470183A5
:100BD800704700BF416170474369594041617047A0
:100BE800CB0800EB830001F0070110B48900046A08
:100BF8000F238B4024EA03030362036A5DF8044B66
:100C08008A401343036270470A4B0B481A68002155
:100C180042F001021A6099601A6822F0847222F484
:100C280080321A6058601A6822F480221A60D960EB
:100C3800704700BF0038024010300024024B0022E9
:100C48001A701870704700BF0238024082B0002343
:100C58000A4A019302E0B3F5A06F08D0136813F4B1
:100C6800003F019B03F101030193019BF3D0034B68
:100C78001868C0F3404002B0704700BF0038024017
:100C8800034A136823F0F80343EAC0001060704772
:100C980000380240014B1860704700BF000047420F
:100CA800064B002201281A701A7005D0042802D1B8
:100CB80005221A70704770471870704770380240E4
:100CC800014B1860704700BF800E474230B4029C49
:100CD800064D40EA046001435B08013B41EA821289
:100CE80042EA0340686030BC704700BF00380240E9
:100CF800014B1860704700BF600047420907034B6B
:100D080041EA8010C3F88400704700BF00380240F1
:100D1800014B1860704700BF68004742014B1860DC
:100D2800704700BF4C004742034A936823F0EC63C6
:100D3800194308439060704700380240034A93689B
:100D480023F0784319430843906070470038024005
:100D5800034A936823F0030318439060704700BF69
:100D680000380240024B986800F00C00704700BF42
:100D780000380240034A936823F0F0031843906058
:100D8800704700BF00380240034A936823F4E053D9
:100D980018439060704700BF00380240034A9368C8
:100DA80023F4604343EAC000906070470038024073
:100DB80010B4214CA36803F00C03042B1BD0082BA0
:100DC8001CD01E4B03601C4A1D499468C4F30314CD
:100DD8000C5DE34043609468C4F382240C5D23FAFD
:100DE80004F4846092685DF8044BC2F342328A5C72
:100DF800D340C3607047134B0360E4E763686168DE
:100E080013F4800F636818BF0E4C01F03F020CBF4B
:100E18000A49B4FBF2F1C3F3881308BFB1FBF2F13E
:100E280001FB03F2044B5B68C3F3014301335B002E
:100E3800B2FBF3F30360C6E7003802400024F40075
:100E48001800002000127A0000F44073B3F5407FC8
:100E580009D108498B6820F0704223F4F81322F472
:100E6800407213438B60034A136FC0F30B0018439F
:100E78001067704700380240014B1860704700BF88
:100E88003C0E4742014B1860704700BF400E474276
:100E9800014B1860704700BF5C014742044A136B5E
:100EA80019B923EA000010637047184310637047AC
:100EB80000380240044A536B19B923EA0000506312
:100EC800704718435063704700380240044A936BD8
:100ED80019B923EA0000906370471843906370477C
:100EE80000380240044A136C19B923EA0000106460
:100EF800704718431064704700380240044A536C26
:100F080019B923EA000050647047184350647047C9
:100F180000380240044A136919B923EA0000106135
:100F2800704718431061704700380240044A5369FB
:100F380019B923EA0000506170471843506170479F
:100F480000380240044A936919B923EA0000906105
:100F5800704718439061704700380240044A136A8A
:100F680019B923EA000010627047184310627047ED
:100F780000380240044A536A19B923EA0000506253
:100F8800704718435062704700380240044A136D96
:100F980019B923EA000010657047184310657047B7
:100FA80000380240044A536D19B923EA000050651D
:100FB800704718435065704700380240044A936DE3
:100FC80019B923EA00009065704718439065704787
:100FD80000380240044A136E19B923EA000010666B
:100FE800704718431066704700380240044A536E31
:100FF80019B923EA000050667047184350667047D5
:1010080000380240044A137819B923EA0000107026
:1010180070471843107070470D3802404309012B80
:101028000BD0022B094B0CBF1A6F5A6F00F01F032D
:1010380022FA03F000F001007047044B1A6800F030
:101048001F0322FA03F000F0010070470038024045
:10105800024A536F43F08073536770470038024069
:10106800034BDB68184214BF01200020704700BF03
:1010780000380240014B1870704700BF0E3802401C
:1010880008B52B4B984219D02A4B984220D02A4BAE
:10109800984229D0294B984232D0294B98423BD0CC
:1010A800284B984200D008BD20200121FFF762FF9D
:1010B80020200021BDE80840FFF75CBF1020012177
:1010C800FFF758FF10200021BDE80840FFF752BF86
:1010D8004FF400300121FFF741FF4FF400300021A9
:1010E800BDE80840FFF73ABF4FF480200121FFF721
:1010F80035FF4FF480200021BDE80840FFF72EBFE0
:101108004FF400200121FFF729FF4FF400200021B0
:10111800BDE80840FFF722BF4FF480100121FFF718
:101128001DFF4FF480100021BDE80840FFF716BFEF
:10113800001001400044004000480040004C0040BE
:101148000050004000140140028A8B88F0B592B22A
:10115800CE880F8904460D4622F440523243A889AE
:1011680049892282A2893B4392B20B4322F4B052AE
:1011780022F00C029BB21343A381A38A9BB223F4EF
:101188004073034385B0A3826846FFF711FE1D4BE9
:101198009C4229D003F580639C4225D0029AA389FA
:1011A800A6891BB2002B2B6802EB8202B4BF5B003E
:1011B8009B0002EB8202B2FBF3F0134A36B2A2FBA9
:1011C80000356D096423002E05FB13034FEA05154E
:1011D8000CDB1B013233A2FB0323C3F343132B4362
:1011E8009BB2238105B0F0BD039AD8E7D90032310C
:1011F800A2FB0131C1F3421242EA05039BB22381EB
:1012080005B0F0BD001001401F85EB5100234FF4DD
:1012180016510C22016042818380C380038183813F
:10122800704700BF30B40A884D888C88038AC98803
:101238002A4322430A439BB292B223F470631343B6
:10124800038230BC704700BF002303804380838043
:10125800C3807047838929B923F400531B041B0CEE
:10126800838170479BB243F400538381704700BF6A
:10127800038B03F47F430383038B9BB219430183DE
:10128800704700BF838919B9C3F30E038381704780
:101298006FEA43436FEA53439BB28381704700BFB1
:1012A800838A29B923F400631B041B0C83827047CB
:1012B8009BB243F400638382704700BFC1F3080107
:1012C800818070478088C0F308007047038A23F044
:1012D8000F031B041B0C0382038A9BB21943018270
:1012E800704700BF838929B923F002031B041B0C34
:1012F800838170479BB243F002038381704700BF2C
:10130800838923F400631B041B0C838183899BB2AC
:1013180019438181704700BF038A23F020031B040F
:101328001B0C0382038A9BB219430182704700BFDA
:10133800038A29B923F480431B041B0C03827047DA
:101348009BB243F480430382704700BF83899BB2FA
:1013580043F0010383817047838A29B923F0080386
:101368001B041B0C838270479BB243F008038382E3
:10137800704700BF038BDBB20383038B9BB243EA46
:1013880001210183704700BF838A29B923F0200314
:101398001B041B0C838270479BB243F0200383829B
:1013A800704700BF838A29B923F010031B041B0C64
:1013B800838270479BB243F010038382704700BF5B
:1013C800838A23F004031B041B0C8382838A9BB249
:1013D80019438182704700BF838A29B923F0020329
:1013E8001B041B0C838270479BB243F00203838269
:1013F800704700BF838A9BB21AB923EA0101818230
:10140800704719438182704710B401F01F04C1F37B
:1014180042110123012903FA04F311D002290CBF58
:101428001030143032B902685DF8044B22EA030325
:101438000360704702685DF8044B1343036070470C
:101448000C30EFE70388194214BF012000207047D1
:10145800C94389B201807047C1F3421210B4012315
:1014680001F01F04012A03FA04F316D0022A0CBF64
:10147800028A828A92B21340028892B24BB1090A58
:1014880001238B40134214BF012000205DF8044B58
:10149800704718465DF8044B7047828992B2134032
:1014A800EAE700BF090A01238B40DB439BB20380B4
:1014B800704700BF40F0BF60024B40F40030D86076
:1014C800704700BF00ED00E0C3785BB903781848A7
:1014D8005A09203203F01F03012101FA03F340F8EF
:1014E80022307047134BF0B4D96845788278047875
:1014F8000F4EC943C1F30221C1F10407FFB20F2304
:10150800BD400B411340E9B20B4304F1604202F5C0
:1015180061421B01DBB282F800330378012203F039
:101528001F015B098A4046F82320F0BC704700BFC2
:1015380000E100E000ED00E021F0604121F07F01D2
:10154800014B08439860704700ED00E0044A1369B6
:1015580019B923EA000010617047184310617047F9
:1015680000ED00E0044A136804280CBF43F00403AC
:1015780023F004031360704710E000E070B5082002
:101588000121FFF78BFC164B16481946002402224E
:101598004FF2AA0601251E601D715A719C71DC71FB
:1015A800FFF784FA104AD2F8883043F47003C2F87F
:1015B800883047F29F40FEF773FE47F29F40FEF7E0
:1015C8006FFE47F29F40FEF76BFE47F29F40FEF723
:1015D80067FE47F29F40FEF763FE204670BD00BFDE
:1015E80074040020000C024000ED00E0002103E03C
:1015F8000B4B5B58435004310A480B4B42189A4234
:10160800F6D30A4A02E0002342F8043B084B9A4208
:10161800F9D3FFF77BF800F01FF8FFF7AFFF70472B
:101628004819000800000020540400205804002035
:101638007C040020FEE7000008B50021044600F005
:101648008BF8044B1868C36B03B19847204600F029
:101658006DF900BF1419000870B50F4E0F4D761BB9
:10166800B61018BF002405D0013455F8043B98473C
:10167800A642F9D10A4E0B4D761B00F04BF9B61075
:1016880018BF002406D0013455F8043B9847A642F9
:10169800F9D170BD70BD00BF3C1900083C190008A5
:1016A800441900083C19000870B4840746D0541E39
:1016B800002A41D0CDB2034602E0621EE4B31446CC
:1016C80003F8015B9A07F8D1032C2ED9CDB245EA6D
:1016D80005250F2C45EA054519D903F110022646C0
:1016E800103E0F2E42F8105C42F80C5C42F8085C81
:1016F80042F8045C02F11002F2D8A4F1100222F0C0
:101708000F0204F00F041032032C13440DD91E46A7
:101718002246043A032A46F8045BFAD8221F22F02C
:1017280003020432134404F003042CB1C9B21C446C
:1017380003F8011BA342FBD170BC70471446034653
:10174800C2E700BF024B13B1024800F06FB8704700
:1017580000000000411800082DE9F04F314B83B01C
:101768001B68009303F5A47381460E460193009B02
:10177800D3F8487127B3DDF804A07C68651E0ED441
:10178800013407EB84044FF00008E6B1D4F80031C7
:10179800B34218D0013D6B1CA4F10404F5D1224BCF
:1017A80073B17B68002B36D13B68002B34D03846A8
:1017B800CAF80030AFF30080DAF80070002FDCD1EF
:1017C80003B0BDE8F08F7B682268013BAB420CBFD9
:1017D8007D60C4F80080002ADCD0D7F88831D7F8BB
:1017E80004B00121A940194208D190477B685B45A4
:1017F800BDD1DAF80030BB42CCD0B8E7D7F88C318D
:10180800194204D14846D4F880109047EEE7D4F83E
:1018180080009047EAE73B68BA461F46002FACD1E4
:10182800CEE700BF141900080000000001460020A0
:101838000246034600F016B838B5084B084DED1AB5
:10184800AC1018BFED1805D0013C55F8043D984779
:10185800002CF9D1BDE8384000F062B844190008FE
:10186800481900082DE9F047254C2568D5F8484166
:101878000646884692469946CCB360681F2818DC0D
:10188800431C7EB104EB80050121C5F888A0D4F87B
:10189800887101FA00F21743022EC4F88871C5F85E
:1018A80008911ED00230636044F820800020BDE813
:1018B800F087144B03B34FF4C870AFF300800446AD
:1018C800D0B1D5F84831002780E88800C5F84841EC
:1018D80038460123C4F88871C4F88C71002EE1D011
:1018E800D0E7D4F88C110A43C4F88C21DAE705F55F
:1018F800A674C5F84841C0E74FF0FF30BDE8F0874F
:10190800141900080000000043000000280000200F
:1019180000000000F8B500BFF8BC08BC9E46704740
:0C192800F8B500BFF8BC08BC9E46704734
:08193400B0E8FF7F0100000094
:08193C004D170008AD01000881
:04194400890100080D
:101948000000000000000000000000000102030485
:1019580006070809007A030A0000000001020304D0
:101968000102030406070809000000001403002010
:101978007C030020E40300200000000000000000B9
:10198800000000000000000000000000000000004F
:10199800000000000000000000000000101900080E
:1019A800000000000000000000000000000000002F
:1019B800000000000000000000000000000000001F
:1019C800000000000000000000000000000000000F
:1019D80000000000000000000000000000000000FF
:1019E80000000000000000000000000000000000EF
:1019F80000000000000000000000000000000000DF
:101A080000000000000000000000000000000000CE
:101A180001000000000000000E33CDAB34126DE66B
:101A2800ECDE05000B0000000000000000000000D4
:101A3800000000000000000000000000000000009E
:101A4800000000000000000000000000000000008E
:101A5800000000000000000000000000000000007E
:101A6800000000000000000000000000000000006E
:041D980028000020FF
:041D9C000000000043
:04000005080015F5E5
:00000001FF
